{
  "_format": "hh-sol-artifact-1",
  "contractName": "KOOMPITOKEN",
  "sourceName": "contracts/KMP.sol",
  "abi": [
    {
      "inputs": [],
      "stateMutability": "nonpayable",
      "type": "constructor"
    },
    {
      "anonymous": false,
      "inputs": [
        {
          "indexed": true,
          "internalType": "address",
          "name": "owner",
          "type": "address"
        },
        {
          "indexed": true,
          "internalType": "address",
          "name": "spender",
          "type": "address"
        },
        {
          "indexed": false,
          "internalType": "uint256",
          "name": "value",
          "type": "uint256"
        }
      ],
      "name": "Approval",
      "type": "event"
    },
    {
      "anonymous": false,
      "inputs": [
        {
          "indexed": true,
          "internalType": "address",
          "name": "from",
          "type": "address"
        },
        {
          "indexed": true,
          "internalType": "address",
          "name": "to",
          "type": "address"
        },
        {
          "indexed": false,
          "internalType": "uint256",
          "name": "value",
          "type": "uint256"
        }
      ],
      "name": "Transfer",
      "type": "event"
    },
    {
      "inputs": [],
      "name": "admin",
      "outputs": [
        {
          "internalType": "address",
          "name": "",
          "type": "address"
        }
      ],
      "stateMutability": "view",
      "type": "function"
    },
    {
      "inputs": [
        {
          "internalType": "address",
          "name": "owner",
          "type": "address"
        },
        {
          "internalType": "address",
          "name": "spender",
          "type": "address"
        }
      ],
      "name": "allowance",
      "outputs": [
        {
          "internalType": "uint256",
          "name": "",
          "type": "uint256"
        }
      ],
      "stateMutability": "view",
      "type": "function"
    },
    {
      "inputs": [
        {
          "internalType": "address",
          "name": "spender",
          "type": "address"
        },
        {
          "internalType": "uint256",
          "name": "amount",
          "type": "uint256"
        }
      ],
      "name": "approve",
      "outputs": [
        {
          "internalType": "bool",
          "name": "",
          "type": "bool"
        }
      ],
      "stateMutability": "nonpayable",
      "type": "function"
    },
    {
      "inputs": [
        {
          "internalType": "address",
          "name": "account",
          "type": "address"
        }
      ],
      "name": "balanceOf",
      "outputs": [
        {
          "internalType": "uint256",
          "name": "",
          "type": "uint256"
        }
      ],
      "stateMutability": "view",
      "type": "function"
    },
    {
      "inputs": [
        {
          "internalType": "uint256",
          "name": "amount",
          "type": "uint256"
        }
      ],
      "name": "burn",
      "outputs": [],
      "stateMutability": "nonpayable",
      "type": "function"
    },
    {
      "inputs": [],
      "name": "decimals",
      "outputs": [
        {
          "internalType": "uint8",
          "name": "",
          "type": "uint8"
        }
      ],
      "stateMutability": "view",
      "type": "function"
    },
    {
      "inputs": [
        {
          "internalType": "address",
          "name": "spender",
          "type": "address"
        },
        {
          "internalType": "uint256",
          "name": "subtractedValue",
          "type": "uint256"
        }
      ],
      "name": "decreaseAllowance",
      "outputs": [
        {
          "internalType": "bool",
          "name": "",
          "type": "bool"
        }
      ],
      "stateMutability": "nonpayable",
      "type": "function"
    },
    {
      "inputs": [],
      "name": "getOwner",
      "outputs": [
        {
          "internalType": "address",
          "name": "",
          "type": "address"
        }
      ],
      "stateMutability": "view",
      "type": "function"
    },
    {
      "inputs": [
        {
          "internalType": "address",
          "name": "spender",
          "type": "address"
        },
        {
          "internalType": "uint256",
          "name": "addedValue",
          "type": "uint256"
        }
      ],
      "name": "increaseAllowance",
      "outputs": [
        {
          "internalType": "bool",
          "name": "",
          "type": "bool"
        }
      ],
      "stateMutability": "nonpayable",
      "type": "function"
    },
    {
      "inputs": [
        {
          "internalType": "address",
          "name": "to",
          "type": "address"
        },
        {
          "internalType": "uint256",
          "name": "amount",
          "type": "uint256"
        }
      ],
      "name": "mint",
      "outputs": [],
      "stateMutability": "nonpayable",
      "type": "function"
    },
    {
      "inputs": [],
      "name": "name",
      "outputs": [
        {
          "internalType": "string",
          "name": "",
          "type": "string"
        }
      ],
      "stateMutability": "view",
      "type": "function"
    },
    {
      "inputs": [
        {
          "internalType": "address",
          "name": "recipient",
          "type": "address"
        },
        {
          "internalType": "uint256",
          "name": "amount",
          "type": "uint256"
        }
      ],
      "name": "send",
      "outputs": [],
      "stateMutability": "nonpayable",
      "type": "function"
    },
    {
      "inputs": [],
      "name": "symbol",
      "outputs": [
        {
          "internalType": "string",
          "name": "",
          "type": "string"
        }
      ],
      "stateMutability": "view",
      "type": "function"
    },
    {
      "inputs": [],
      "name": "totalSupply",
      "outputs": [
        {
          "internalType": "uint256",
          "name": "",
          "type": "uint256"
        }
      ],
      "stateMutability": "view",
      "type": "function"
    },
    {
      "inputs": [
        {
          "internalType": "address",
          "name": "to",
          "type": "address"
        },
        {
          "internalType": "uint256",
          "name": "amount",
          "type": "uint256"
        }
      ],
      "name": "transfer",
      "outputs": [
        {
          "internalType": "bool",
          "name": "",
          "type": "bool"
        }
      ],
      "stateMutability": "nonpayable",
      "type": "function"
    },
    {
      "inputs": [
        {
          "internalType": "address",
          "name": "from",
          "type": "address"
        },
        {
          "internalType": "address",
          "name": "to",
          "type": "address"
        },
        {
          "internalType": "uint256",
          "name": "amount",
          "type": "uint256"
        }
      ],
      "name": "transferFrom",
      "outputs": [
        {
          "internalType": "bool",
          "name": "",
          "type": "bool"
        }
      ],
      "stateMutability": "nonpayable",
      "type": "function"
    }
  ],
  "bytecode": "0x6080604052678ac7230489e800006006553480156200001d57600080fd5b506040518060400160405280600681526020017f4b4f4f4d504900000000000000000000000000000000000000000000000000008152506040518060400160405280600381526020017f4b4d5000000000000000000000000000000000000000000000000000000000008152508160039080519060200190620000a2929190620002a5565b508060049080519060200190620000bb929190620002a5565b505050620000db336a084595161401484a0000006200012260201b60201c565b33600560006101000a81548173ffffffffffffffffffffffffffffffffffffffff021916908373ffffffffffffffffffffffffffffffffffffffff16021790555062000501565b600073ffffffffffffffffffffffffffffffffffffffff168273ffffffffffffffffffffffffffffffffffffffff16141562000195576040517f08c379a00000000000000000000000000000000000000000000000000000000081526004016200018c906200038d565b60405180910390fd5b620001a9600083836200029b60201b60201c565b8060026000828254620001bd9190620003dd565b92505081905550806000808473ffffffffffffffffffffffffffffffffffffffff1673ffffffffffffffffffffffffffffffffffffffff1681526020019081526020016000206000828254620002149190620003dd565b925050819055508173ffffffffffffffffffffffffffffffffffffffff16600073ffffffffffffffffffffffffffffffffffffffff167fddf252ad1be2c89b69c2b068fc378daa952ba7f163c4a11628f55a4df523b3ef836040516200027b9190620003af565b60405180910390a36200029760008383620002a060201b60201c565b5050565b505050565b505050565b828054620002b39062000444565b90600052602060002090601f016020900481019282620002d7576000855562000323565b82601f10620002f257805160ff191683800117855562000323565b8280016001018555821562000323579182015b828111156200032257825182559160200191906001019062000305565b5b50905062000332919062000336565b5090565b5b808211156200035157600081600090555060010162000337565b5090565b600062000364601f83620003cc565b91506200037182620004d8565b602082019050919050565b62000387816200043a565b82525050565b60006020820190508181036000830152620003a88162000355565b9050919050565b6000602082019050620003c660008301846200037c565b92915050565b600082825260208201905092915050565b6000620003ea826200043a565b9150620003f7836200043a565b9250827fffffffffffffffffffffffffffffffffffffffffffffffffffffffffffffffff038211156200042f576200042e6200047a565b5b828201905092915050565b6000819050919050565b600060028204905060018216806200045d57607f821691505b60208210811415620004745762000473620004a9565b5b50919050565b7f4e487b7100000000000000000000000000000000000000000000000000000000600052601160045260246000fd5b7f4e487b7100000000000000000000000000000000000000000000000000000000600052602260045260246000fd5b7f45524332303a206d696e7420746f20746865207a65726f206164647265737300600082015250565b611b7480620005116000396000f3fe608060405234801561001057600080fd5b50600436106101005760003560e01c806370a0823111610097578063a9059cbb11610066578063a9059cbb146102c3578063d0679d34146102f3578063dd62ed3e1461030f578063f851a4401461033f57610100565b806370a0823114610227578063893d20e81461025757806395d89b4114610275578063a457c2d71461029357610100565b8063313ce567116100d3578063313ce567146101a157806339509351146101bf57806340c10f19146101ef57806342966c681461020b57610100565b806306fdde0314610105578063095ea7b31461012357806318160ddd1461015357806323b872dd14610171575b600080fd5b61010d61035d565b60405161011a9190611496565b60405180910390f35b61013d60048036038101906101389190611205565b6103ef565b60405161014a919061147b565b60405180910390f35b61015b610412565b6040516101689190611618565b60405180910390f35b61018b600480360381019061018691906111b6565b61041c565b604051610198919061147b565b60405180910390f35b6101a961044b565b6040516101b69190611633565b60405180910390f35b6101d960048036038101906101d49190611205565b610454565b6040516101e6919061147b565b60405180910390f35b61020960048036038101906102049190611205565b6104fe565b005b61022560048036038101906102209190611241565b61059c565b005b610241600480360381019061023c9190611151565b6105a9565b60405161024e9190611618565b60405180910390f35b61025f6105f1565b60405161026c9190611460565b60405180910390f35b61027d61061b565b60405161028a9190611496565b60405180910390f35b6102ad60048036038101906102a89190611205565b6106ad565b6040516102ba919061147b565b60405180910390f35b6102dd60048036038101906102d89190611205565b610797565b6040516102ea919061147b565b60405180910390f35b61030d60048036038101906103089190611205565b6107ba565b005b6103296004803603810190610324919061117a565b610859565b6040516103369190611618565b60405180910390f35b6103476108e0565b6040516103549190611460565b60405180910390f35b60606003805461036c9061177c565b80601f01602080910402602001604051908101604052809291908181526020018280546103989061177c565b80156103e55780601f106103ba576101008083540402835291602001916103e5565b820191906000526020600020905b8154815290600101906020018083116103c857829003601f168201915b5050505050905090565b6000806103fa610906565b905061040781858561090e565b600191505092915050565b6000600254905090565b600080610427610906565b9050610434858285610ad9565b61043f858585610b65565b60019150509392505050565b60006012905090565b60008061045f610906565b90506104f3818585600160008673ffffffffffffffffffffffffffffffffffffffff1673ffffffffffffffffffffffffffffffffffffffff16815260200190815260200160002060008973ffffffffffffffffffffffffffffffffffffffff1673ffffffffffffffffffffffffffffffffffffffff168152602001908152602001600020546104ee919061166a565b61090e565b600191505092915050565b600560009054906101000a900473ffffffffffffffffffffffffffffffffffffffff1673ffffffffffffffffffffffffffffffffffffffff163373ffffffffffffffffffffffffffffffffffffffff161461058e576040517f08c379a000000000000000000000000000000000000000000000000000000000815260040161058590611598565b60405180910390fd5b6105988282610de6565b5050565b6105a63382610f46565b50565b60008060008373ffffffffffffffffffffffffffffffffffffffff1673ffffffffffffffffffffffffffffffffffffffff168152602001908152602001600020549050919050565b6000600560009054906101000a900473ffffffffffffffffffffffffffffffffffffffff16905090565b60606004805461062a9061177c565b80601f01602080910402602001604051908101604052809291908181526020018280546106569061177c565b80156106a35780601f10610678576101008083540402835291602001916106a3565b820191906000526020600020905b81548152906001019060200180831161068657829003601f168201915b5050505050905090565b6000806106b8610906565b90506000600160008373ffffffffffffffffffffffffffffffffffffffff1673ffffffffffffffffffffffffffffffffffffffff16815260200190815260200160002060008673ffffffffffffffffffffffffffffffffffffffff1673ffffffffffffffffffffffffffffffffffffffff1681526020019081526020016000205490508381101561077e576040517f08c379a0000000000000000000000000000000000000000000000000000000008152600401610775906115d8565b60405180910390fd5b61078b828686840361090e565b60019250505092915050565b6000806107a2610906565b90506107af818585610b65565b600191505092915050565b600560009054906101000a900473ffffffffffffffffffffffffffffffffffffffff1673ffffffffffffffffffffffffffffffffffffffff163373ffffffffffffffffffffffffffffffffffffffff161461084a576040517f08c379a000000000000000000000000000000000000000000000000000000000815260040161084190611598565b60405180910390fd5b610855338383610b65565b5050565b6000600160008473ffffffffffffffffffffffffffffffffffffffff1673ffffffffffffffffffffffffffffffffffffffff16815260200190815260200160002060008373ffffffffffffffffffffffffffffffffffffffff1673ffffffffffffffffffffffffffffffffffffffff16815260200190815260200160002054905092915050565b600560009054906101000a900473ffffffffffffffffffffffffffffffffffffffff1681565b600033905090565b600073ffffffffffffffffffffffffffffffffffffffff168373ffffffffffffffffffffffffffffffffffffffff16141561097e576040517f08c379a0000000000000000000000000000000000000000000000000000000008152600401610975906115b8565b60405180910390fd5b600073ffffffffffffffffffffffffffffffffffffffff168273ffffffffffffffffffffffffffffffffffffffff1614156109ee576040517f08c379a00000000000000000000000000000000000000000000000000000000081526004016109e5906114f8565b60405180910390fd5b80600160008573ffffffffffffffffffffffffffffffffffffffff1673ffffffffffffffffffffffffffffffffffffffff16815260200190815260200160002060008473ffffffffffffffffffffffffffffffffffffffff1673ffffffffffffffffffffffffffffffffffffffff168152602001908152602001600020819055508173ffffffffffffffffffffffffffffffffffffffff168373ffffffffffffffffffffffffffffffffffffffff167f8c5be1e5ebec7d5bd14f71427d1e84f3dd0314c0f7b2291e5b200ac8c7c3b92583604051610acc9190611618565b60405180910390a3505050565b6000610ae58484610859565b90507fffffffffffffffffffffffffffffffffffffffffffffffffffffffffffffffff8114610b5f5781811015610b51576040517f08c379a0000000000000000000000000000000000000000000000000000000008152600401610b4890611518565b60405180910390fd5b610b5e848484840361090e565b5b50505050565b600073ffffffffffffffffffffffffffffffffffffffff168373ffffffffffffffffffffffffffffffffffffffff161415610bd5576040517f08c379a0000000000000000000000000000000000000000000000000000000008152600401610bcc90611578565b60405180910390fd5b600073ffffffffffffffffffffffffffffffffffffffff168273ffffffffffffffffffffffffffffffffffffffff161415610c45576040517f08c379a0000000000000000000000000000000000000000000000000000000008152600401610c3c906114b8565b60405180910390fd5b610c5083838361111d565b60008060008573ffffffffffffffffffffffffffffffffffffffff1673ffffffffffffffffffffffffffffffffffffffff16815260200190815260200160002054905081811015610cd6576040517f08c379a0000000000000000000000000000000000000000000000000000000008152600401610ccd90611538565b60405180910390fd5b8181036000808673ffffffffffffffffffffffffffffffffffffffff1673ffffffffffffffffffffffffffffffffffffffff16815260200190815260200160002081905550816000808573ffffffffffffffffffffffffffffffffffffffff1673ffffffffffffffffffffffffffffffffffffffff1681526020019081526020016000206000828254610d69919061166a565b925050819055508273ffffffffffffffffffffffffffffffffffffffff168473ffffffffffffffffffffffffffffffffffffffff167fddf252ad1be2c89b69c2b068fc378daa952ba7f163c4a11628f55a4df523b3ef84604051610dcd9190611618565b60405180910390a3610de0848484611122565b50505050565b600073ffffffffffffffffffffffffffffffffffffffff168273ffffffffffffffffffffffffffffffffffffffff161415610e56576040517f08c379a0000000000000000000000000000000000000000000000000000000008152600401610e4d906115f8565b60405180910390fd5b610e626000838361111d565b8060026000828254610e74919061166a565b92505081905550806000808473ffffffffffffffffffffffffffffffffffffffff1673ffffffffffffffffffffffffffffffffffffffff1681526020019081526020016000206000828254610ec9919061166a565b925050819055508173ffffffffffffffffffffffffffffffffffffffff16600073ffffffffffffffffffffffffffffffffffffffff167fddf252ad1be2c89b69c2b068fc378daa952ba7f163c4a11628f55a4df523b3ef83604051610f2e9190611618565b60405180910390a3610f4260008383611122565b5050565b600073ffffffffffffffffffffffffffffffffffffffff168273ffffffffffffffffffffffffffffffffffffffff161415610fb6576040517f08c379a0000000000000000000000000000000000000000000000000000000008152600401610fad90611558565b60405180910390fd5b610fc28260008361111d565b60008060008473ffffffffffffffffffffffffffffffffffffffff1673ffffffffffffffffffffffffffffffffffffffff16815260200190815260200160002054905081811015611048576040517f08c379a000000000000000000000000000000000000000000000000000000000815260040161103f906114d8565b60405180910390fd5b8181036000808573ffffffffffffffffffffffffffffffffffffffff1673ffffffffffffffffffffffffffffffffffffffff16815260200190815260200160002081905550816002600082825461109f91906116c0565b92505081905550600073ffffffffffffffffffffffffffffffffffffffff168373ffffffffffffffffffffffffffffffffffffffff167fddf252ad1be2c89b69c2b068fc378daa952ba7f163c4a11628f55a4df523b3ef846040516111049190611618565b60405180910390a361111883600084611122565b505050565b505050565b505050565b60008135905061113681611b10565b92915050565b60008135905061114b81611b27565b92915050565b60006020828403121561116357600080fd5b600061117184828501611127565b91505092915050565b6000806040838503121561118d57600080fd5b600061119b85828601611127565b92505060206111ac85828601611127565b9150509250929050565b6000806000606084860312156111cb57600080fd5b60006111d986828701611127565b93505060206111ea86828701611127565b92505060406111fb8682870161113c565b9150509250925092565b6000806040838503121561121857600080fd5b600061122685828601611127565b92505060206112378582860161113c565b9150509250929050565b60006020828403121561125357600080fd5b60006112618482850161113c565b91505092915050565b611273816116f4565b82525050565b61128281611706565b82525050565b60006112938261164e565b61129d8185611659565b93506112ad818560208601611749565b6112b68161180c565b840191505092915050565b60006112ce602383611659565b91506112d98261181d565b604082019050919050565b60006112f1602283611659565b91506112fc8261186c565b604082019050919050565b6000611314602283611659565b915061131f826118bb565b604082019050919050565b6000611337601d83611659565b91506113428261190a565b602082019050919050565b600061135a602683611659565b915061136582611933565b604082019050919050565b600061137d602183611659565b915061138882611982565b604082019050919050565b60006113a0602583611659565b91506113ab826119d1565b604082019050919050565b60006113c3600a83611659565b91506113ce82611a20565b602082019050919050565b60006113e6602483611659565b91506113f182611a49565b604082019050919050565b6000611409602583611659565b915061141482611a98565b604082019050919050565b600061142c601f83611659565b915061143782611ae7565b602082019050919050565b61144b81611732565b82525050565b61145a8161173c565b82525050565b6000602082019050611475600083018461126a565b92915050565b60006020820190506114906000830184611279565b92915050565b600060208201905081810360008301526114b08184611288565b905092915050565b600060208201905081810360008301526114d1816112c1565b9050919050565b600060208201905081810360008301526114f1816112e4565b9050919050565b6000602082019050818103600083015261151181611307565b9050919050565b600060208201905081810360008301526115318161132a565b9050919050565b600060208201905081810360008301526115518161134d565b9050919050565b6000602082019050818103600083015261157181611370565b9050919050565b6000602082019050818103600083015261159181611393565b9050919050565b600060208201905081810360008301526115b1816113b6565b9050919050565b600060208201905081810360008301526115d1816113d9565b9050919050565b600060208201905081810360008301526115f1816113fc565b9050919050565b600060208201905081810360008301526116118161141f565b9050919050565b600060208201905061162d6000830184611442565b92915050565b60006020820190506116486000830184611451565b92915050565b600081519050919050565b600082825260208201905092915050565b600061167582611732565b915061168083611732565b9250827fffffffffffffffffffffffffffffffffffffffffffffffffffffffffffffffff038211156116b5576116b46117ae565b5b828201905092915050565b60006116cb82611732565b91506116d683611732565b9250828210156116e9576116e86117ae565b5b828203905092915050565b60006116ff82611712565b9050919050565b60008115159050919050565b600073ffffffffffffffffffffffffffffffffffffffff82169050919050565b6000819050919050565b600060ff82169050919050565b60005b8381101561176757808201518184015260208101905061174c565b83811115611776576000848401525b50505050565b6000600282049050600182168061179457607f821691505b602082108114156117a8576117a76117dd565b5b50919050565b7f4e487b7100000000000000000000000000000000000000000000000000000000600052601160045260246000fd5b7f4e487b7100000000000000000000000000000000000000000000000000000000600052602260045260246000fd5b6000601f19601f8301169050919050565b7f45524332303a207472616e7366657220746f20746865207a65726f206164647260008201527f6573730000000000000000000000000000000000000000000000000000000000602082015250565b7f45524332303a206275726e20616d6f756e7420657863656564732062616c616e60008201527f6365000000000000000000000000000000000000000000000000000000000000602082015250565b7f45524332303a20617070726f766520746f20746865207a65726f20616464726560008201527f7373000000000000000000000000000000000000000000000000000000000000602082015250565b7f45524332303a20696e73756666696369656e7420616c6c6f77616e6365000000600082015250565b7f45524332303a207472616e7366657220616d6f756e742065786365656473206260008201527f616c616e63650000000000000000000000000000000000000000000000000000602082015250565b7f45524332303a206275726e2066726f6d20746865207a65726f2061646472657360008201527f7300000000000000000000000000000000000000000000000000000000000000602082015250565b7f45524332303a207472616e736665722066726f6d20746865207a65726f20616460008201527f6472657373000000000000000000000000000000000000000000000000000000602082015250565b7f4f6e6c792041646d696e00000000000000000000000000000000000000000000600082015250565b7f45524332303a20617070726f76652066726f6d20746865207a65726f2061646460008201527f7265737300000000000000000000000000000000000000000000000000000000602082015250565b7f45524332303a2064656372656173656420616c6c6f77616e63652062656c6f7760008201527f207a65726f000000000000000000000000000000000000000000000000000000602082015250565b7f45524332303a206d696e7420746f20746865207a65726f206164647265737300600082015250565b611b19816116f4565b8114611b2457600080fd5b50565b611b3081611732565b8114611b3b57600080fd5b5056fea2646970667358221220756c36bf83195e24302ca505648382ebb2659566c56e71d868916a12f33f067164736f6c63430008040033",
  "linkReferences": {},
  "deployedLinkReferences": {}
}